:100000000C9483000C94B4000C94B4000C94B400D1
:100010000C94B4000C94B4000C94B4000C94B40090
:100020000C94B4000C94B4000C94B4000C94B40080
:100030000C94B4000C94B4000C94B4000C94B40070
:100040000C94B4000C94B4000C94B4000C94B40060
:100050000C94B4000C94B4000C94B4000C946002A2
:100060000C94B4000C942F020C9405020C94B40070
:100070000C94B4000C94B4000C94B4000C94B40030
:100080000C94B4000C94B4000C94B4000C94B40020
:100090000C94B4000C94B4000C94B4000C94B40010
:1000A0000C94B4000C94B4000C94B4000C94B40000
:1000B0000C94B4000C94B4000C94B4000C94B400F0
:1000C0000C94B4000C94B4000C94B4000C94B400E0
:1000D0000C94B4000C94B4000C94B4000C94B400D0
:1000E0000C94B4000C94A8020C9410010C9483019D
:1000F0000C9402010C94B6000C943C010C94EE009C
:100100000C94DF00A80211241FBECFEFD1E2DEBFA6
:10011000CDBF00E00CBF12E0A0E0B2E0E4E3F6E007
:1001200000E00BBF02C007900D92A231B107D9F7D2
:1001300022E0A2E1B2E001C01D92A83BB207E1F7C4
:1001400010E0C3E8D0E000E006C021970109802F4D
:10015000FE010E941003C238D10780E00807A9F70A
:100160000E94D5020C940D030C940000CF92DF92F4
:10017000EF92FF920F931F93CF93DF937C016A015D
:1001800010E000E00C151D0581F0EB01D701ED91A9
:10019000FC910190F081E02D6991C7011995892B9F
:1001A00021F00F5F1F4FBE01EDCFC801DF91CF914E
:1001B0001F910F91FF90EF90DF90CF900895FC0179
:1001C000538D448D252F30E0842F90E0821B930BBC
:1001D000541710F0CF96089501970895FC01918D62
:1001E000828D981761F0A28DAE0FBF2FB11D5D9665
:1001F0008C91928D9F5F9F73928F90E008958FEF07
:100200009FEF0895FC01918D828D981731F0828DBA
:10021000E80FF11D858D90E008958FEF9FEF089511
:10022000FC01818D228D90E0805C9F4F821B9109A3
:100230008F7399270895FC01A48DA80FB92FB11DC4
:10024000A35ABF4F2C91848D90E001968F7399270C
:10025000848FA689B7892C93A089B1898C918064F9
:100260008C93938D848D981306C00288F389E02DBA
:1002700080818F7D80830895EF92FF920F931F936B
:10028000CF93DF93EC01F62E81E0888F9B8D8C8DD0
:10029000981316C0E889F989808185FF11C0EE891D
:1002A000FF896083E889F98980818064808381E0A7
:1002B00090E0DF91CF911F910F91FF90EF90089503
:1002C0000B8D10E00F5F1F4F0F731127E02E8C8DE9
:1002D0008E110CC00FB607FCFACFE889F98980812E
:1002E00085FFF5CFCE010E941B01F1CFEB8DEC0F06
:1002F000FD2FF11DE35AFF4FF0820B8FEA89FB8936
:1003000080818062D3CFCF93DF93EC01888D8823E7
:10031000B9F0AA89BB89E889F9898C9185FD03C068
:10032000808186FD0DC00FB607FCF7CF8C9185FF4D
:10033000F2CF808185FFEDCFCE010E941B01E9CF76
:10034000DF91CF910895789484B5826084BD84B59F
:10035000816084BD85B5826085BD85B5816085BDC0
:10036000EEE6F0E0808181608083E1E8F0E01082D9
:10037000808182608083808181608083E0E8F0E01A
:10038000808181608083E1EBF0E080818460808304
:10039000E0EBF0E0808181608083E1E9F0E0808142
:1003A00082608083808181608083E0E9F0E08081E9
:1003B00081608083E1EAF0E08081826080838081D7
:1003C00081608083E0EAF0E0808181608083E1E207
:1003D000F1E0808182608083808181608083E0E2BF
:1003E000F1E0808181608083EAE7F0E080818460D1
:1003F000808380818260808380818160808380812E
:10040000806880831092C10008951F920F920FB6EA
:100410000F9211240BB60F922F933F934F935F933C
:100420006F937F938F939F93AF93BF93EF93FF93BC
:100430008BE192E00E941B01FF91EF91BF91AF9180
:100440009F918F917F916F915F914F913F912F91EC
:100450000F900BBE0F900FBE0F901F9018952F930B
:100460002FB72F932BB72F938F939F93EF93FF93D8
:10047000E0912B02F0912C028081E0913102F09109
:10048000320282FD1BC09081809134028F5F8F7396
:1004900020913502821741F0E0913402F0E0E55EF0
:1004A000FD4F958F80933402FF91EF919F918F9133
:1004B0002F912BBF2F912FBF2F9118958081F4CFB3
:1004C0001F921FB61F9211242F933F938F939F93D8
:1004D000AF93BF938091170290911802A0911902D7
:1004E000B0911A023091160223E0230F2D3750F5F8
:1004F0000196A11DB11D20931602809317029093BF
:100500001802A0931902B0931A02809112029091DE
:100510001302A0911402B09115020196A11DB11D04
:100520008093120290931302A0931402B0931502C9
:10053000BF91AF919F918F913F912F911F901FBEBF
:100540001F90189526E8230F0296A11DB11DD3CF49
:10055000EBE1F2E01382128288EE93E0A0E0B0E0DB
:1005600084839583A683B78384E092E0918380831C
:1005700085EC90E09587848784EC90E09787868768
:1005800080EC90E0918B808B81EC90E0938B828B60
:1005900082EC90E0958B848B86EC90E0978B868B39
:1005A000118E128E138E148E08950E94A301E09175
:1005B0002B02F0912C0282E08083E0912702F091DF
:1005C00028021082E0912902F0912A028FEC8083A8
:1005D00010923302E0912F02F091300286E0808386
:1005E000E0912D02F0912E02808180618083E09164
:1005F0002D02F0912E02808188608083E0912D028F
:10060000F0912E02808180688083E0912D02F0912C
:100610002E0280818F7D8083FFCFF8940C94180385
:10062000EE0FFF1F881F8BBF0790F691E02D1994E6
:04063000F894FFCF6C
:10063400000000003C01B600DF0083011001EE0061
:020644000201B1
:00000001FF
